:100000000C942C000C9449000C9449000C94490069
:100010000C9449000C9449000C9449000C9449003C
:100020000C9449000C94000F0C9449000C94490066
:100030000C9449000C948C0F0C9449000C94460FBE
:100040000C94A9060C9449000C9449000C944900A6
:100050000C9449000D0A000011241FBECFE5D8E022
:10006000DEBFCDBF11E0A8E6B1E001C01D92A03E09
:10007000B107E1F711E0A0E6B0E0EAE5F2E302C083
:1000800005900D92A836B107D9F70E944B000C9449
:100090002B190C9400006F927F928F929F92AF92D7
:1000A000BF92CF92DF92EF92FF920F931F93DF9355
:1000B000CF93CDB7DEB70E9409090E94B6100E9407
:1000C000DF0E78940E943D090E940B01DC01CB01F8
:1000D0008093A3019093A401A093A501B093A601DE
:1000E0000E943401DC01CB018093A7019093A80109
:1000F000A093A901B093AA010E944308DC01CB019F
:100100008093C3019093C401A093C501B093C6012D
:100110000E947D07DC01CB018093AB019093AC0181
:10012000A093AD01B093AE012091A3013091A40141
:100130004091A5015091A601E090A701F090A8017F
:100140000091A9011091AA01A090C301B090C4012F
:10015000C090C501D090C6016090AB017090AC0119
:100160008090AD019090AE0100D0EDB7FEB7319612
:10017000A8E6B1E08CE691E091838083CA01B901E1
:10018000A801970186017501640153014D010E9488
:100190004F010F900F9098CF1F93DF93CF93CDB760
:1001A000DEB78091680190916901A0916A01B091D8
:1001B0006B0120916C0130916D0140916E01509165
:1001C0006F01BC01CD010E945A0A80916801909193
:1001D0006901A0916A01B0916B01BC01CD010E943F
:1001E0003011DC01CB01182F80916C0190916D01D1
:1001F000A0916E01B0916F01BC01CD010E94301140
:10020000DC01CB01982F812F692F0E948E0ECF9198
:10021000DF911F910895DF93CF93CDB7DEB7809123
:10022000B601882F90E0A0E0B0E0BC01CD010E94B3
:100230001E16DC01CB01BC01CD0120E030E048EC12
:1002400052E40E940613DC01CB01BC01CD0120E089
:1002500030E040E85FE30E94A812DC01CB01BC0162
:10026000CD01CF91DF910895DF93CF93CDB7DEB766
:100270008091B7019091B801A091B901B091BA01F4
:10028000BC01CD0125E33AEF4EE05DE30E94061389
:10029000DC01CB01BC01CD01CF91DF9108958F929C
:1002A0009F92AF92BF92CF92DF92EF92FF920F9305
:1002B0001F93DF93CF93CDB7DEB7C655D0400FB6AF
:1002C000F894DEBF0FBECDBF69837A838B839C8396
:1002D0002D833E834F835887E986FA860B871C87D8
:1002E000AD86BE86CF86D88A9A8A898A69857A85BC
:1002F0008B859C8520E030E040E85FE30E94AC14F1
:1003000018165CF480E090E0A0E8BFE367968CAF3D
:100310009DAFAEAFBFAF67972DC069857A858B85DE
:100320009C8520E030E040E85FEB0E940C158823BC
:100330005CF480E090E0A0E8BFEB63968CAF9DAFEB
:10034000AEAFBFAF63970AC089859A85AB85BC8580
:1003500063968CAF9DAFAEAFBFAF639763968CAD26
:100360009DADAEADBFAD639767968CAF9DAFAEAFA1
:10037000BFAF679767968CAD9DADAEADBFAD6797CC
:1003800089879A87AB87BC876D857E858F8598899D
:1003900020E030E040E85FE30E94AC1418165CF403
:1003A00080E090E0A0E8BFE32F968CAF9DAFAEAFAA
:1003B000BFAF2F972DC06D857E858F85988920E0F2
:1003C00030E040E85FEB0E940C1588235CF480E08D
:1003D00090E0A0E8BFEB2B968CAF9DAFAEAFBFAF68
:1003E0002B970AC08D859E85AF85B8892B968CAFDB
:1003F0009DAFAEAFBFAF2B972B968CAD9DADAEAD85
:10040000BFAD2B972F968CAF9DAFAEAFBFAF2F97E1
:100410002F968CAD9DADAEADBFAD2F978D879E87CE
:10042000AF87B88B8091860190918701A091880158
:10043000B09189018093820190938301A0938401FC
:10044000B09385016D857E858F85988929853A854C
:100450004B855C850E94A812DC01CB01BC01CD015B
:100460002AE132E646E850E40E940613DC01CB01A3
:100470008093860190938701A0938801B0938901AE
:100480006D857E858F85988929853A854B855C8524
:100490000E94D912DC01CB01BC01CD0120E030E08B
:1004A00040E05FE30E940613DC01CB0180937E01F4
:1004B00090937F01A0938001B09381018091860188
:1004C00090918701A0918801B091890120918201CA
:1004D000309183014091840150918501BC01CD018F
:1004E0000E94D912DC01CB01BC01CD012AE037ED1D
:1004F00043E25BE30E940613DC01CB0120918E01F5
:1005000030918F014091900150919101BC01CD013A
:100510000E94D912DC01CB0180938E0190938F0150
:10052000A0939001B093910180918E0190918F01E1
:10053000A0919001B0919101BC01CD012BED3FE064
:1005400049EC50E40E94AC141816CCF480918E0152
:1005500090918F01A0919001B0919101BC01CD01CA
:100560002BED3FE049EC50E40E94A812DC01CB01E6
:1005700027968CAF9DAFAEAFBFAF279745C0809198
:100580008E0190918F01A0919001B0919101BC01D9
:10059000CD0120E030E040E050E00E940C158823BF
:1005A000CCF480918E0190918F01A0919001B09137
:1005B0009101BC01CD012BED3FE049EC50E40E94DC
:1005C000D912DC01CB0123968CAF9DAFAEAFBFAF8C
:1005D00023970EC080918E0190918F01A091900180
:1005E000B091910123968CAF9DAFAEAFBFAF239773
:1005F00023968CAD9DADAEADBFAD239727968CAF46
:100600009DAFAEAFBFAF279727968CAD9DADAEAD7A
:10061000BFAD279780938E0190938F01A093900197
:10062000B093910180918E0190918F01A0919001E2
:10063000B0919101BC01CD012BED3FE049E450E4C4
:100640000E94D912DC01CB01BC01CD012D813E817C
:100650004F8158850E943C1518168CF06D817E8163
:100660008F8198852BED3FE049EC50E40E94A81261
:10067000DC01CB018BAF9CAFADAFBEAF3DC0809175
:100680008E0190918F01A0919001B0919101BC01D8
:10069000CD012BED3FE049E450E40E94A812DC01BB
:1006A000CB01BC01CD012D813E814F8158850E9437
:1006B000DC1488238CF06D817E818F8198852BEDF1
:1006C0003FE049EC50E40E94D912DC01CB018FAB32
:1006D00098AFA9AFBAAF08C08D819E81AF81B885B0
:1006E0008FAB98AFA9AFBAAF8FA998ADA9ADBAAD8E
:1006F0008BAF9CAFADAFBEAF20918E0130918F011B
:1007000040919001509191016BAD7CAD8DAD9EAD4E
:100710000E94A812DC01CB0180938A0190938B0187
:10072000A0938C01B0938D0180917E0190917F0107
:10073000A0918001B0918101BC01CD0128EE31EB87
:1007400049E750EC0E940613DC01CB017C018D01CE
:1007500069817A818B819C8124EF38ED4CE950E4EA
:100760000E940613DC01CB019C01AD01C801B70159
:100770000E94D912DC01CB0180937A0190937B0116
:10078000A0937C01B0937D0180918A0190918B01AF
:10079000A0918C01B0918D01BC01CD0121E237EA1D
:1007A00044E95FE30E940613DC01CB017C018D016B
:1007B0008091860190918701A0918801B091890173
:1007C000BC01CD0128E137EA44E15FEB0E9406134A
:1007D000DC01CB019C01AD01C801B7010E94D91217
:1007E000DC01CB018093760190937701A09378018F
:1007F000B09379018091760190917701A091780171
:10080000B0917901BC01CD0120E030E040E050E042
:100810000E94DC1488232CF0A1E0B0E0BEABADABAD
:1008200004C08FEF9FEF9EAB8DABADA9BEA9B09377
:100830007501A093740180917A0190917B01A09140
:100840007C01B0917D01BC01CD0120E030E040E0B1
:1008500050E00E94DC1488232CF081E090E09CABF7
:100860008BAB04C0AFEFBFEFBCABABAB8BA99CA90C
:10087000909373018093720180917401909175013E
:10088000AA2797FDA095BA2FBC01CD010E946C1537
:10089000DC01CB0120917601309177014091780104
:1008A00050917901BC01CD010E940613DC01CB01FE
:1008B000BC01CD0120E030E040E85FE30E94AC14D1
:1008C00018168CF48091740190917501AA2797FDF8
:1008D000A095BA2FBC01CD010E946C156FA778AB13
:1008E00089AB9AAB43C08091740190917501AA279E
:1008F00097FDA095BA2FBC01CD010E946C15DC01BB
:10090000CB0120917601309177014091780150918F
:100910007901BC01CD010E940613DC01CB01BC01B1
:10092000CD012DEC3CEC4CE45DE30E943C15181627
:100930004CF080E090E0A0E0B0E08BA79CA7ADA7D2
:10094000BEA70CC08091760190917701A0917801AB
:10095000B09179018BA79CA7ADA7BEA78BA59CA53D
:10096000ADA5BEA58FA798ABA9ABBAAB8FA598A92B
:10097000A9A9BAA98093760190937701A0937801F1
:10098000B09379018091720190917301AA2797FD2C
:10099000A095BA2FBC01CD010E946C15DC01CB01E2
:1009A00020917A0130917B0140917C0150917D0131
:1009B000BC01CD010E940613DC01CB01BC01CD01BD
:1009C00020E030E040E85FE30E94AC1418168CF49D
:1009D0008091720190917301AA2797FDA095BA2F7B
:1009E000BC01CD010E946C156FA378A789A79AA7B7
:1009F0000CC080917A0190917B01A0917C01B09113
:100A00007D018FA398A7A9A7BAA78FA198A5A9A58B
:100A1000BAA580937A0190937B01A0937C01B09357
:100A20007D018091720190917301AA2797FDA09595
:100A3000BA2FBC01CD010E946C15DC01CB012091C5
:100A40007A0130917B0140917C0150917D01BC0184
:100A5000CD010E940613DC01CB017C018D01809148
:100A6000740190917501AA2797FDA095BA2FBC013A
:100A7000CD010E946C15DC01CB01209176013091F3
:100A800077014091780150917901BC01CD010E941C
:100A90000613DC01CB019C01AD0160E070E080E851
:100AA0009FE30E94A812DC01CB019C01AD01C801AB
:100AB000B7010E94AC1418160CF041C0809172016D
:100AC00090917301AA2797FDA095BA2FBC01CD0183
:100AD0000E946C157B018C018091740190917501CD
:100AE000AA2797FDA095BA2FBC01CD010E946C15D5
:100AF000DC01CB01209176013091770140917801A2
:100B000050917901BC01CD010E940613DC01CB019B
:100B10009C01AD0160E070E080E89FE30E94A812B4
:100B2000DC01CB019C01AD01C801B7010E94061395
:100B3000DC01CB018BA39CA3ADA3BEA30CC0809111
:100B40007A0190917B01A0917C01B0917D018BA3F2
:100B50009CA3ADA3BEA38BA19CA1ADA1BEA180937C
:100B60007A0190937B01A0937C01B0937D018091E9
:100B70007A0190917B01A0917C01B0917D0120913F
:100B80007601309177014091780150917901BC0153
:100B9000CD010E94D912DC01CB01A796EEADFFADCD
:100BA000A79780839183A283B38380917A019091E8
:100BB0007B01A0917C01B0917D0120917601309163
:100BC00077014091780150917901BC01CD010E94DB
:100BD000A812DC01CB01E989FA8980839183A28381
:100BE000B383A796EEADFFADA79780819181A281D7
:100BF000B381BC01CD0124EA30E74DE75FE30E94F9
:100C0000AC1418164CF484EA90E7ADE7BFE38F8F7D
:100C100098A3A9A3BAA32FC0A796EEADFFADA7973F
:100C200080819181A281B381BC01CD0124EA30E7AA
:100C30004DE75FEB0E940C1588234CF484EA90E7A3
:100C4000ADE7BFEB8B8F9C8FAD8FBE8F0CC0A7968F
:100C5000EEADFFADA79780819181A281B3818B8F8B
:100C60009C8FAD8FBE8F8B8D9C8DAD8DBE8D8F8FEC
:100C700098A3A9A3BAA3A796EEADFFADA7978F8DB2
:100C800098A1A9A1BAA180839183A283B383E989A2
:100C9000FA8980819181A281B381BC01CD0124EACE
:100CA00030E74DE75FE30E94AC1418164CF484EA79
:100CB00090E7ADE7BFE38F8B988FA98FBA8F2BC0DA
:100CC000E989FA8980819181A281B381BC01CD013A
:100CD00024EA30E74DE75FEB0E940C1588234CF4C3
:100CE00084EA90E7ADE7BFEB8B8B9C8BAD8BBE8B23
:100CF0000AC0E989FA8980819181A281B3818B8BB5
:100D00009C8BAD8BBE8B8B899C89AD89BE898F8B6B
:100D1000988FA98FBA8FE989FA898F89988DA98DC3
:100D2000BA8D80839183A283B383CA5ADF4F0FB6F3
:100D3000F894DEBF0FBECDBFCF91DF911F910F9111
:100D4000FF90EF90DF90CF90BF90AF909F908F90EB
:100D500008951F920F920FB60F9211242F933F9375
:100D60004F935F936F937F938F939F93AF93BF93B3
:100D7000EF93FF93DF93CF93CDB7DEB7E7E2F0E0D9
:100D800080919201808380919201882309F052C062
:100D9000E4E2F0E0808191819093DA018093D901BF
:100DA00081E0809392018091970190919801853024
:100DB0009105CCF480919301909194019C018091D4
:100DC000D9019091DA01820F931F9093940180933F
:100DD00093018091970190919801019690939801C9
:100DE0008093970177C08091930190919401209115
:100DF000970130919801B9010E94AB18CB01AA2745
:100E000097FDA095BA2FBC01CD010E946C15DC01A5
:100E1000CB0180939B0190939C01A0939D01B09383
:100E20009E011092980110929701109294011092D5
:100E3000930150C0E4E2F0E0808191819093D80169
:100E40008093D701109292018091990190919A011B
:100E500085309105CCF480919501909196019C018B
:100E60008091D7019091D801820F931F90939601A2
:100E7000809395018091990190919A0101969093A8
:100E80009A018093990126C08091950190919601D5
:100E90002091990130919A01B9010E94AB18CB01C0
:100EA000AA2797FDA095BA2FBC01CD010E946C1511
:100EB000DC01CB0180939F019093A001A093A1013D
:100EC000B093A20110929A0110929901109296018A
:100ED00010929501CF91DF91FF91EF91BF91AF916A
:100EE0009F918F917F916F915F914F913F912F9142
:100EF0000F900FBE0F901F901895AF92BF92CF9298
:100F0000DF92EF92FF920F931F93DF93CF9300D066
:100F100000D0CDB7DEB7EBE3F0E08081882F90E022
:100F200088709070009709F44DC0E0909F01F09098
:100F3000A0010091A1011091A2018091D501909191
:100F4000D601CC01A0E0B0E0BC01CD010E941E168C
:100F50009B01AC01C801B7010E94A812DC01CB01C2
:100F60005C016D018091D1019091D201CC01A0E092
:100F7000B0E0BC01CD010E941E167B018C01809166
:100F8000D5019091D601CC01A0E0B0E0BC01CD012B
:100F90000E941E169B01AC01C801B7010E94A81255
:100FA000DC01CB019C01AD01C601B5010E9400141A
:100FB000DC01CB019C01AD01505829833A834B835E
:100FC0005C834CC0E0909F01F090A0010091A101D2
:100FD0001091A2018091D3019091D401CC01A0E0A5
:100FE000B0E0BC01CD010E941E169B01AC01C801FE
:100FF000B7010E94A812DC01CB015C016D01809158
:10100000CF019091D001CC01A0E0B0E0BC01CD01B6
:101010000E941E167B018C018091D3019091D40116
:10102000CC01A0E0B0E0BC01CD010E941E169B01E6
:10103000AC01C801B7010E94A812DC01CB019C01E0
:10104000AD01C601B5010E940014DC01CB019C0179
:10105000AD01505829833A834B835C8389819A81FF
:10106000AB81BC81BC01CD010F900F900F900F9010
:10107000CF91DF911F910F91FF90EF90DF90CF9074
:10108000BF90AF900895AF92BF92CF92DF92EF9250
:10109000FF920F931F93DF93CF9300D000D0CDB773
:1010A000DEB7EBE3F0E08081882F90E084709070F1
:1010B000009709F44DC0E0909F01F090A0010091CD
:1010C000A1011091A2018091CD019091CE01CC019E
:1010D000A0E0B0E0BC01CD010E941E169B01AC0156
:1010E000C801B7010E94A812DC01CB015C016D01AF
:1010F0008091C9019091CA01CC01A0E0B0E0BC018F
:10110000CD010E941E167B018C018091CD01909132
:10111000CE01CC01A0E0B0E0BC01CD010E941E16C2
:101120009B01AC01C801B7010E94A812DC01CB01F0
:101130009C01AD01C601B5010E940014DC01CB0188
:101140009C01AD01505829833A834B835C834CC08A
:10115000E0909F01F090A0010091A1011091A201E7
:101160008091CB019091CC01CC01A0E0B0E0BC011A
:10117000CD010E941E169B01AC01C801B7010E945F
:10118000A812DC01CB015C016D018091C701909137
:10119000C801CC01A0E0B0E0BC01CD010E941E1648
:1011A0007B018C018091CB019091CC01CC01A0E01E
:1011B000B0E0BC01CD010E941E169B01AC01C8012C
:1011C000B7010E94A812DC01CB019C01AD01C60150
:1011D000B5010E940014DC01CB019C01AD01505807
:1011E00029833A834B835C8389819A81AB81BC815B
:1011F000BC01CD010F900F900F900F90CF91DF9118
:101200001F910F91FF90EF90DF90CF90BF90AF9024
:101210000895DF93CF93CDB7DEB7E6E2F0E08FEE2F
:101220008083E7E2F0E01082E0E5F0E01082CF9109
:10123000DF910895DF93CF9300D0CDB7DEB71A8248
:10124000198211C01092C1018091C1018130E1F772
:101250001092C1018091C1018130E1F789819A81A9
:1012600001969A83898389819A818A30910554F302
:101270000F900F90CF91DF910895DF93CF93CDB76B
:10128000DEB71092C0011092BF01AAE3B0E0EAE31A
:10129000F0E08081482F8091B00182958F7081703D
:1012A000282F30E081E090E002C0880F991F2A9536
:1012B000E2F7842B8C93ABE3B0E0EBE3F0E08081CA
:1012C000482F8091B00182958F708170282F30E077
:1012D00081E090E002C0880F991F2A95E2F7842BE5
:1012E0008C9382E090E061E070E00E94BD0C809100
:1012F0009F019091A001A091A101B091A201BC0118
:10130000CD010E943011DC01CB019093D00180937C
:10131000CF0180919B0190919C01A0919D01B09182
:101320009E01BC01CD010E943011DC01CB019093E4
:10133000C8018093C701ABE3B0E0EBE3F0E080814C
:10134000482F8091B00182958F708170282F30E0F6
:1013500081E090E002C0880F991F2A95E2F78095FE
:1013600084238C9380919F019091A001A091A10171
:10137000B091A201BC01CD010E943011DC01CB0172
:101380009093D4018093D30180919B0190919C0113
:10139000A0919D01B0919E01BC01CD010E94301130
:1013A000DC01CB019093CC018093CB01ABE3B0E0A7
:1013B000EBE3F0E08081482F8091B00182958F703F
:1013C0008170282F30E081E090E002C0880F991FE3
:1013D0002A95E2F7842B8C9381E090E062E070E044
:1013E0000E94BD0C80919F019091A001A091A1014C
:1013F000B091A201BC01CD010E943011DC01CB01F2
:101400009093D2018093D10180919B0190919C0196
:10141000A0919D01B0919E01BC01CD010E943011AF
:10142000DC01CB019093CA018093C901ABE3B0E02A
:10143000EBE3F0E08081482F8091B00182958F70BE
:101440008170282F30E081E090E002C0880F991F62
:101450002A95E2F7809584238C9380919F01909147
:10146000A001A091A101B091A201BC01CD010E94F7
:101470003011DC01CB019093D6018093D50180918E
:101480009B0190919C01A0919D01B0919E01BC0196
:10149000CD010E943011DC01CB019093CE018093ED
:1014A000CD0181E090E09093C0018093BF01CF9186
:1014B000DF910895DF93CF93CDB7DEB762970FB674
:1014C000F894DEBF0FBECDBF69837A838B839C8384
:1014D0002D833E834F8358878091B601882321F066
:1014E0008091BB019091BC01188A69817A818B81BE
:1014F0009C8120E030E040E050E00E940C15882301
:1015000014F491E0988B81E098898927882309F069
:1015100074C01F866D817E818F81988520E030E0C8
:1015200040E050E00E940C15882314F481E08F877E
:1015300081E09F858927882309F05FC0A2E3B0E09E
:10154000E2E3F0E08081482F8091B3018695869593
:1015500086958170282F30E081E090E002C0880FEE
:10156000991F2A95E2F7842B8C93A2E3B0E0E2E383
:10157000F0E08081482F8091B30186958695817037
:10158000282F30E081E090E002C0880F991F2A9553
:10159000E2F7809584238C93A2E3B0E0E2E3F0E0ED
:1015A0008081482F8091B301881F8827881F282FAA
:1015B00030E081E090E002C0880F991F2A95E2F7A1
:1015C000842B8C93A2E3B0E0E2E3F0E08081482F2B
:1015D0008091B30182958695869583708170282FBE
:1015E00030E081E090E0022E02C0880F991F0A943B
:1015F000E2F7809584238C93B7C11E8669817A8136
:101600008B819C8120E030E040E050E00E94AC14EF
:10161000181614F481E08E8781E09E85892788233F
:1016200009F074C01D866D817E818F81988520E0D0
:1016300030E040E050E00E94AC14181614F481E051
:101640008D8781E09D858927882309F05FC0A2E30B
:10165000B0E0E2E3F0E08081482F8091B30186950D
:1016600086958170282F30E081E090E002C0880FDD
:10167000991F2A95E2F7842B8C93A2E3B0E0E2E372
:10168000F0E08081482F8091B301869586958695FC
:101690008170282F30E081E090E002C0880F991F10
:1016A0002A95E2F7809584238C93A2E3B0E0E2E3ED
:1016B000F0E08081482F8091B301829586958695D0
:1016C00083708170282F30E081E090E002C0880FA5
:1016D000991F2A95E2F7842B8C93A2E3B0E0E2E312
:1016E000F0E08081482F8091B301881F8827881FF0
:1016F000282F30E081E090E0022E02C0880F991F71
:101700000A94E2F7809584238C932EC11C8669810C
:101710007A818B819C8120E030E040E050E00E94A3
:10172000AC14181614F481E08C8781E09C8589271D
:10173000882309F074C01B866D817E818F81988516
:1017400020E030E040E050E00E940C15882314F4C3
:1017500081E08B8781E09B858927882309F05FC022
:10176000A2E3B0E0E2E3F0E08081482F8091B30192
:10177000869586958170282F30E081E090E002C048
:10178000880F991F2A95E2F7842B8C93A2E3B0E08F
:10179000E2E3F0E08081482F8091B3018695869541
:1017A00086958170282F30E081E090E002C0880F9C
:1017B000991F2A95E2F7809584238C93A2E3B0E0E9
:1017C000E2E3F0E08081482F8091B301881F8827F1
:1017D000881F282F30E081E090E002C0880F991F19
:1017E0002A95E2F7842B8C93A2E3B0E0E2E3F0E0E9
:1017F0008081482F8091B30182958695869583706C
:101800008170282F30E081E090E0022E02C0880F26
:10181000991F0A94E2F7809584238C93A5C01A86B9
:1018200069817A818B819C8120E030E040E050E04A
:101830000E940C15882314F481E08A8781E09A8540
:101840008927882309F074C019866D817E818F8174
:10185000988520E030E040E050E00E94AC1418167B
:1018600014F481E0898781E099858927882309F02C
:101870005FC0A2E3B0E0E2E3F0E08081482F809116
:10188000B3018695869586958170282F30E081E09A
:1018900090E002C0880F991F2A95E2F7842B8C9361
:1018A000A2E3B0E0E2E3F0E08081482F8091B30151
:1018B000869586958170282F30E081E090E002C007
:1018C000880F991F2A95E2F7809584238C93A2E3D1
:1018D000B0E0E2E3F0E08081482F8091B30182958F
:1018E0008695869583708170282F30E081E090E0A6
:1018F00002C0880F991F2A95E2F7842B8C93A2E3EC
:10190000B0E0E2E3F0E08081482F8091B301881FCE
:101910008827881F282F30E081E090E0022E02C047
:10192000880F991F0A94E2F7809584238C931CC03A
:10193000A2E3B0E0E2E3F0E0808188608C93A2E370
:10194000B0E0E2E3F0E0808184608C93A2E3B0E059
:10195000E2E3F0E0808180648C93A2E3B0E0E2E314
:10196000F0E0808180688C9362960FB6F894DEBFB9
:101970000FBECDBFCF91DF910895DF93CF93CDB749
:10198000DEB728970FB6F894DEBF0FBECDBF9A839F
:1019900089837C836B8389819A819E838D838D81EA
:1019A0009E818130910509F443C08D819E818130F3
:1019B000910568F08D819E818230910509F468C09F
:1019C0008D819E818330910509F492C0BFC0A2E34E
:1019D000B0E0E2E3F0E08081482F8091B30186958A
:1019E00086958170282F30E081E090E002C0880F5A
:1019F000991F2A95E2F7809584238C93A2E3B0E0A7
:101A0000E2E3F0E08081482F8091B30186958695CE
:101A100086958170282F30E081E090E0022E02C090
:101A2000880F991F0A94E2F7809584238C938EC0C7
:101A3000A2E3B0E0E2E3F0E08081482F8091B301BF
:101A4000869586958170282F30E081E090E002C075
:101A5000880F991F2A95E2F7842B8C93A2E3B0E0BC
:101A6000E2E3F0E08081482F8091B301869586956E
:101A700086958170282F30E081E090E0022E02C030
:101A8000880F991F0A94E2F7809584238C935EC097
:101A9000A2E3B0E0E2E3F0E08081482F8091B3015F
:101AA000869586958170282F30E081E090E002C015
:101AB000880F991F2A95E2F7809584238C93A2E3DF
:101AC000B0E0E2E3F0E08081482F8091B301869599
:101AD000869586958170282F30E081E090E0022E77
:101AE00002C0880F991F0A94E2F7842B8C932EC0B2
:101AF000A2E3B0E0E2E3F0E08081482F8091B301FF
:101B0000869586958170282F30E081E090E002C0B4
:101B1000880F991F2A95E2F7842B8C93A2E3B0E0FB
:101B2000E2E3F0E08081482F8091B30186958695AD
:101B300086958170282F30E081E090E0022E02C06F
:101B4000880F991F0A94E2F7842B8C938B819C81D8
:101B500098878F838F8198858130910509F444C0DF
:101B60008F8198858130910568F08F8198858230CA
:101B7000910509F46AC08F8198858330910509F435
:101B800095C0C3C0A2E3B0E0E2E3F0E08081482F5B
:101B90008091B30182958695869583708170282FF8
:101BA00030E081E090E002C0880F991F2A95E2F7AB
:101BB000809584238C93A2E3B0E0E2E3F0E080819F
:101BC000482F8091B301881F8827881F282F30E075
:101BD00081E090E0022E02C0880F991F0A94E2F77C
:101BE000809584238C9391C0A2E3B0E0E2E3F0E01F
:101BF0008081482F8091B301829586958695837068
:101C00008170282F30E081E090E002C0880F991F9A
:101C10002A95E2F7842B8C93A2E3B0E0E2E3F0E0B4
:101C20008081482F8091B301881F8827881F282F23
:101C300030E081E090E0022E02C0880F991F0A94E4
:101C4000E2F7809584238C9360C0A2E3B0E0E2E3E6
:101C5000F0E08081482F8091B3018295869586952A
:101C600083708170282F30E081E090E002C0880FFF
:101C7000991F2A95E2F7809584238C93A2E3B0E024
:101C8000E2E3F0E08081482F8091B301881F88272C
:101C9000881F282F30E081E090E0022E02C0880FDC
:101CA000991F0A94E2F7842B8C932FC0A2E3B0E033
:101CB000E2E3F0E08081482F8091B3018295869520
:101CC000869583708170282F30E081E090E002C01B
:101CD000880F991F2A95E2F7842B8C93A2E3B0E03A
:101CE000E2E3F0E08081482F8091B301881F8827CC
:101CF000881F282F30E081E090E0022E02C0880F7C
:101D0000991F0A94E2F7842B8C9328960FB6F894C7
:101D1000DEBF0FBECDBFCF91DF910895DF93CF938C
:101D200000D000D0CDB7DEB78B836C838B81882F3A
:101D300090E0A0E0B0E021EE34E040E050E0BC01F3
:101D4000CD010E948C18DC01CB0124E630E040E09C
:101D500050E0BC01CD010E94BE18DA01C9019A838E
:101D60008983EAE4F0E089819A81918380838C8180
:101D7000882F90E0A0E0B0E021EE34E040E050E0B9
:101D8000BC01CD010E948C18DC01CB0124E630E0BF
:101D900040E050E0BC01CD010E94BE18DA01C9014B
:101DA0009A838983E8E4F0E089819A819183808332
:101DB0000F900F900F900F90CF91DF910895DF93C8
:101DC000CF93CDB7DEB7EFE4F0E082EA8083EEE4B4
:101DD000F0E08AE18083E9E5F0E084E08083E8E5F3
:101DE000F0E08CE38083E6E4F0E081EE94E0918320
:101DF000808380E060E00E948E0ECF91DF91089595
:101E00001F920F920FB60F9211242F933F934F936F
:101E10005F936F937F938F939F93AF93BF93EF9352
:101E2000FF93DF93CF93CDB7DEB78091BF01909141
:101E3000C0018130910599F48091BB019091BC0162
:101E40002091BD013091BE01B9010E94BD0C80916D
:101E5000B4019091B501692F0E948E0E04C080E0FC
:101E600060E00E948E0ECF91DF91FF91EF91BF91C4
:101E7000AF919F918F917F916F915F914F913F9122
:101E80002F910F900FBE0F901F9018951F920F92D9
:101E90000FB60F9211248F939F93AF93BF93EF933D
:101EA000FF93DF93CF93CDB7DEB78091DD019091A3
:101EB000DE01009709F18091DD019091DE0101962C
:101EC0009093DE018093DD01E091DD01F091DE0170
:101ED0008081882341F41092DE011092DD0181E0BF
:101EE0008093DC010CC0ECE2F0E0A091DD01B09148
:101EF000DE018C91808303C081E08093DC01CF916F
:101F0000DF91FF91EF91BF91AF919F918F910F90D2
:101F10000FBE0F901F9018951F920F920FB60F9241
:101F200011242F933F934F935F936F937F938F93DE
:101F30009F93AF93BF93EF93FF93DF93CF930F9252
:101F4000CDB7DEB781E08093DB01ECE2F0E0808189
:101F50008093DF0119828981882371F48091DF01E8
:101F6000813F19F481E089832BC08091DF01803F9C
:101F700039F581E0898324C08981813039F48091E9
:101F8000DF018093B60182E089831AC089818230A3
:101F9000B1F48091DF01882F90E0A0E0B0E0BC01B7
:101FA000CD010E941E16DC01CB018093B7019093F6
:101FB000B801A093B901B093BA01198201C0198286
:101FC000ECE2F0E08091DF0180830F90CF91DF9110
:101FD000FF91EF91BF91AF919F918F917F916F9101
:101FE0005F914F913F912F910F900FBE0F901F90D7
:101FF0001895DF93CF930F92CDB7DEB78983809189
:10200000DC018823E1F31092DC01ECE2F0E089814D
:1020100080830F90CF91DF910895DF93CF93CDB759
:10202000DEB78091DB018823E1F31092DB01809120
:10203000DF01CF91DF910895DF93CF9300D0CDB72B
:10204000DEB79A8389838091DC018823E1F31092C3
:10205000DC0189819A819093DE018093DD01ACE2FD
:10206000B0E0E091DD01F091DE0180818C930F9072
:102070000F90CF91DF910895DF93CF9300D00F920F
:10208000CDB7DEB78091DC018823E1F31092DC014B
:1020900084E590E09093DE018093DD01ACE2B0E056
:1020A0008091DD019091DE019B838A83EA81FB812F
:1020B0008491898389818C930F900F900F90CF9199
:1020C000DF910895DF93CF9300D0CDB7DEB78A8339
:1020D0008A818F70898389818A3020F08981895C27
:1020E000898303C08981805D898389810E94F90F7A
:1020F0000F900F90CF91DF910895DF93CF930F92C0
:10210000CDB7DEB78983898182958F700E94621076
:1021100089810E9462100F90CF91DF910895DF9323
:10212000CF9300D0CDB7DEB79A83898389819A8116
:10213000892F992782958F700E94621089819A81D8
:10214000892F99270E94621089819A8192958295A0
:102150008F7089279F7089270E94621089810E9451
:1021600062100F900F90CF91DF910895DF93CF937E
:10217000CDB7DEB781E08093DC011092DB011092D5
:10218000DE011092DD01E0E4F0E086E88083EAE21F
:10219000F0E088ED8083E0E4F0E01082E9E2F0E036
:1021A00087E68083CF91DF910895DF93CF9300D0AE
:1021B00000D000D0CDB7DEB79C838B837E836D8348
:1021C0008EEF0E94F90F1A8219820FC029813A817D
:1021D0008B819C81FC01E20FF31F80810E94F90F2B
:1021E00089819A8101969A83898329813A818D8197
:1021F0009E812817390754F38FEF0E94F90F269616
:102200000FB6F894DEBF0FBECDBFCF91DF9108951A
:10221000DF93CF9300D0CDB7DEB79A8389838EEF5B
:102220000E94F90F89810E94F90F8FEF0E94F90F28
:102230000F900F90CF91DF910895DF93CF930F927E
:10224000CDB7DEB789838EEF0E94F90F89810E9496
:10225000F90F8FEF0E94F90F0F90CF91DF91089542
:10226000EF92FF920F931F937B018C0120E030E0EF
:1022700040E05FE40E94DC1488238CF0C801B701C1
:1022800020E030E040E05FE40E94A8120E94CA15FE
:102290009B01AC01205030404040504806C0C8016E
:1022A000B7010E94CA159B01AC01B901CA011F9177
:1022B0000F91FF90EF900895A0E0B0E0E2E6F1E129
:1022C0000C94F418DC012B01FA019C91923008F473
:1022D00039C1EB018881823008F433C1943069F44C
:1022E000843009F02FC111969C911197898198171C
:1022F00009F428C1A0E6B0E025C1843009F421C169
:102300008230A9F4923009F01DC19A01AD0188E034
:10231000EA010990AE01E90109929E018150C1F7DD
:10232000E201898111969C918923818308C19230B1
:1023300009F407C112962D903C901397EB018A8106
:102340009B811496AD90BD90CD90DC901797EC805A
:10235000FD800E811F819101281B390BB90137FFC8
:1023600004C066277727621B730B603271050CF07F
:1023700061C0121613066CF537014801062E04C021
:1023800096948794779467940A94D2F721E030E08A
:1023900040E050E004C0220F331F441F551F6A95D0
:1023A000D2F721503040404050402E213F21402361
:1023B0005123211531054105510521F021E030E07F
:1023C00040E050E079018A01E628F7280829192918
:1023D0003CC0232BD1F1260E371E35014601062EB7
:1023E00004C096948794779467940A94D2F721E076
:1023F00030E040E050E004C0220F331F441F551F5F
:102400006A95D2F721503040404050402A213B216C
:102410004C215D21211531054105510521F021E0B7
:1024200030E040E050E059016A01A628B728C828EA
:10243000D9280BC0821593052CF01C01AA24BB24BB
:10244000650103C0EE24FF24870111969C91D201FF
:1024500011968C91981709F445C0992339F0A80179
:1024600097012A193B094C095D0906C0A60195018F
:102470002E193F09400B510B57FD08C011823382C2
:10248000228224833583468357831DC081E0818364
:102490003382228288279927DC01821B930BA40BAD
:1024A000B50B84839583A683B7830DC0220F331F9A
:1024B000441F551F2483358346835783828193812C
:1024C0000197938382832481358146815781DA0184
:1024D000C9010197A109B1098F5F9F4FAF4FBF435A
:1024E00028F30BC0918333822282EA0CFB1C0C1D63
:1024F0001D1DE482F5820683178383E08083248197
:1025000035814681578157FF1AC0C901AA2797FD17
:10251000A095BA2F81709070A070B07056954795B5
:1025200037952795822B932BA42BB52B84839583EA
:10253000A683B78382819381019693838283DF018F
:1025400001C0D201CD01CDB7DEB7E2E10C94101984
:10255000A0E2B0E0EEEAF2E10C94001969837A831C
:102560008B839C832D833E834F835887E9E0EE2E37
:10257000F12CEC0EFD1ECE010196B7010E94BB1797
:102580008E010F5E1F4FCE010596B8010E94BB174A
:102590008A8991E089278A8BC701B801AE01475E1D
:1025A0005F4F0E945C110E94E616A096E6E00C9434
:1025B0001C19A0E2B0E0EFEDF2E10C940019698380
:1025C0007A838B839C832D833E834F835887F9E0E6
:1025D000EF2EF12CEC0EFD1ECE010196B7010E94EC
:1025E000BB178E010F5E1F4FCE010596B8010E94EA
:1025F000BB17C701B801AE01475E5F4F0E945C1177
:102600000E94E616A096E6E00C941C19A0E2B0E049
:10261000ECE0F3E10C94F41869837A838B839C8358
:102620002D833E834F835887CE010196BE01675F9D
:102630007F4F0E94BB17CE010596BE016F5E7F4F94
:102640000E94BB179985923088F089898230C8F042
:10265000943019F4823051F404C0843029F492305B
:1026600081F480E690E0C6C0923049F420E09A857B
:102670008A89981321E02A87CE010996BBC082304F
:1026800049F420E09A858A89981321E02A8BCE01AB
:102690004196B0C02D843E844F8458886D887E88D2
:1026A0008F88988CEE24FF248701AA24BB2465011F
:1026B00040E050E060E070E0E0E0F0E0C1018170F7
:1026C0009070892BE9F0E60CF71C081D191D9A0182
:1026D000AB012A0D3B1D4C1D5D1D80E090E0A0E08C
:1026E000B0E0E614F7040805190520F481E090E055
:1026F000A0E0B0E0BA01A901480F591F6A1F7B1F73
:10270000AA0CBB1CCC1CDD1C97FE08C081E090E02D
:10271000A0E0B0E0A82AB92ACA2ADB2A3196E03222
:10272000F10549F0660C771C881C991C5694479457
:1027300037942794C3CFFA85EA892B893C898B8506
:102740009C85280F391F2E5F3F4F17C0CA0181702B
:102750009070892B61F016950795F794E79480E0C7
:1027600090E0A0E0B0E8E82AF92A0A2B1B2B769526
:102770006795579547952F5F3F4F77FDE7CF0CC083
:10278000440F551F661F771F17FD4160EE0CFF1C9D
:10279000001F111F21503040403090E0590790E059
:1027A000690790E4790760F32B8F3C8FDB01CA0146
:1027B0008F779070A070B07080349105A105B1053D
:1027C00061F447FD0AC0E114F1040105110529F087
:1027D000405C5F4F6F4F7F4F40781A8EFE1711F0AD
:1027E00081E08A8F4D8F5E8F6F8F78A383E0898F12
:1027F000CE0149960E94E616A096E2E10C941019CB
:10280000A8E1B0E0E6E0F4E10C94FC1869837A8377
:102810008B839C832D833E834F835887B9E0EB2EB7
:10282000F12CEC0EFD1ECE010196B7010E94BB17E4
:102830008E010F5E1F4FCE010596B8010E94BB1797
:102840002985223008F47EC03989323010F4B8016D
:102850007CC08A859A8989278A87243011F02230A2
:1028600031F4231709F06EC060E670E06EC03430BA
:1028700039F41D861E861F86188A1C861B8604C096
:10288000323021F484E08987B7015FC02B853C8515
:102890008B899C89281B390B3C872B87ED84FE8410
:1028A0000F851889AD88BE88CF88D88CEA14FB04C0
:1028B0000C051D0540F4EE0CFF1C001F111F2150DC
:1028C00030403C872B8720E030E040E050E080E063
:1028D00090E0A0E0B0E460E070E0EA14FB040C05D6
:1028E0001D0540F0282B392B4A2B5B2BEA18FB08DF
:1028F0000C091D09B695A79597958795EE0CFF1CB9
:10290000001F111F6F5F7F4F6F31710531F7DA01C3
:10291000C9018F779070A070B07080349105A105C7
:10292000B10561F427FD0AC0E114F10401051105A8
:1029300029F0205C3F4F4F4F5F4F20782D873E8717
:102940004F87588BBE01675F7F4FCB010E94E61611
:102950006896EAE00C941819A8E1B0E0E2EBF4E123
:102960000C94001969837A838B839C832D833E8327
:102970004F83588789E0E82EF12CEC0EFD1ECE0126
:102980000196B7010E94BB178E010F5E1F4FCE014B
:102990000596B8010E94BB178985823040F089896D
:1029A000823028F0C701B8010E94331801C08FEFB0
:1029B0006896E6E00C941C19A8E1B0E0E2EEF4E1C0
:1029C0000C94001969837A838B839C832D833E83C7
:1029D0004F83588789E0E82EF12CEC0EFD1ECE01C6
:1029E0000196B7010E94BB178E010F5E1F4FCE01EB
:1029F0000596B8010E94BB178985823040F089890D
:102A0000823028F0C701B8010E94331801C08FEF4F
:102A10006896E6E00C941C19A8E1B0E0E2E1F5E16B
:102A20000C94001969837A838B839C832D833E8366
:102A30004F83588789E0E82EF12CEC0EFD1ECE0165
:102A40000196B7010E94BB178E010F5E1F4FCE018A
:102A50000596B8010E94BB178985823040F08989AC
:102A6000823028F0C701B8010E94331801C081E00C
:102A70006896E6E00C941C19A8E1B0E0E2E4F5E108
:102A80000C94001969837A838B839C832D833E8306
:102A90004F83588789E0E82EF12CEC0EFD1ECE0105
:102AA0000196B7010E94BB178E010F5E1F4FCE012A
:102AB0000596B8010E94BB178985823040F089894C
:102AC000823028F0C701B8010E94331801C081E0AC
:102AD0006896E6E00C941C19A8E0B0E0E2E7F5E1A6
:102AE0000C94FD189B01AC0183E08983DA01C901D4
:102AF0008827B7FD83959927AA27BB27B82E2115CC
:102B000031054105510519F482E089833AC08823D3
:102B1000A9F0203080E0380780E0480780E85807B7
:102B200029F460E070E080E09FEC30C0EE24FF24E8
:102B30008701E21AF30A040B150B02C079018A011E
:102B40008EE1C82ED12CDC82CB82ED82FE820F83F7
:102B50001887C801B7010E94971601971816190621
:102B600084F4082E04C0EE0CFF1C001F111F0A94F1
:102B7000D2F7ED82FE820F831887C81AD90ADC8249
:102B8000CB82BA82CE0101960E94E6162896E9E031
:102B90000C941919ACE0B0E0E0EDF5E10C940419E7
:102BA00069837A838B839C83CE010196BE016B5F20
:102BB0007F4F0E94BB178D81823061F1823050F1CE
:102BC000843021F48E81882351F12EC02F813885E5
:102BD00037FD20C06E812F3131051CF06623F9F0DE
:102BE00023C08EE190E0821B930B29853A854B85AB
:102BF0005C8504C056954795379527958A95D2F7F9
:102C00006623B1F050954095309521953F4F4F4F39
:102C10005F4F0EC020E030E040E050E009C02FEFF1
:102C20003FEF4FEF5FE704C020E030E040E050E8C6
:102C3000B901CA012C96E2E00C942019A8E0B0E09A
:102C4000E4E2F6E10C94FC187B018C01611571053E
:102C50008105910519F482E0898360C083E089834E
:102C60008EE1C82ED12CDC82CB82ED82FE820F83D6
:102C70001887C801B7010E949716FC013197F7FF2A
:102C80003BC0222733272E1B3F0B57016801022E22
:102C900004C0D694C794B794A7940A94D2F740E09E
:102CA00050E060E070E081E090E0A0E0B0E004C0BF
:102CB000880F991FAA1FBB1F2A95D2F70197A10958
:102CC000B1098E219F21A023B1230097A105B10551
:102CD00021F041E050E060E070E04A295B296C2976
:102CE0007D294D835E836F8378878EE190E08E1B14
:102CF0009F0B9C838B8312C0309781F00E2E04C0F3
:102D0000EE0CFF1C001F111F0A94D2F7ED82FE8209
:102D10000F831887CE1ADF0ADC82CB821A82CE019B
:102D200001960E94E6162896EAE00C941819EF9294
:102D3000FF920F931F937B018C0180E0E81680E0E7
:102D4000F80681E0080780E0180788F48FEFE8169E
:102D5000F1040105110531F028F088E090E0A0E0D1
:102D6000B0E017C080E090E0A0E0B0E012C080E0EA
:102D7000E81680E0F80680E0080781E0180728F0F0
:102D800088E190E0A0E0B0E004C080E190E0A0E045
:102D9000B0E020E230E040E050E0281B390B4A0B65
:102DA0005B0B04C016950795F794E7948A95D2F7C4
:102DB000F701E859FF4F8081281B3109410951096A
:102DC000C9011F910F91FF90EF900895DF92EF924C
:102DD000FF920F931F93FC01E480F5800681178119
:102DE000D1808081823048F480E090E0A0E1B0E0C2
:102DF000E82AF92A0A2B1B2BA5C0843009F49FC0AE
:102E0000823021F4EE24FF24870105C0E114F1048F
:102E10000105110519F4E0E0F0E096C062817381CC
:102E20009FEF623879070CF05BC022E83FEF261B6A
:102E3000370B2A3131052CF020E030E040E050E043
:102E40002AC0B801A701022E04C076956795579550
:102E500047950A94D2F781E090E0A0E0B0E004C08A
:102E6000880F991FAA1FBB1F2A95D2F70197A109A6
:102E7000B1098E219F21A023B1230097A105B1059F
:102E800021F081E090E0A0E0B0E09A01AB01282BB6
:102E9000392B4A2B5B2BDA01C9018F779070A07018
:102EA000B07080349105A105B10539F427FF09C040
:102EB000205C3F4F4F4F5F4F04C0215C3F4F4F4F4F
:102EC0005F4FE0E0F0E02030A0E03A07A0E04A07E2
:102ED000A0E45A0710F0E1E0F0E079018A0127C090
:102EE0006038710564F5FB01E158FF4FD801C70157
:102EF0008F779070A070B07080349105A105B105F6
:102F000039F4E7FE0DC080E490E0A0E0B0E004C03A
:102F10008FE390E0A0E0B0E0E80EF91E0A1F1B1F4F
:102F200017FF05C016950795F794E794319687E04B
:102F300016950795F794E7948A95D1F705C0EE2486
:102F4000FF248701EFEFF0E06E2F67956627679506
:102F5000902F9F77D794DD24D7948E2F8695492F75
:102F6000462B582F5D29B701CA011F910F91FF9081
:102F7000EF90DF900895FC01DB01408151812281B7
:102F8000622F6F7770E0221F2227221F9381892FE3
:102F9000880F822B282F30E0991F9927991F1196AF
:102FA0009C93119721153105A9F54115510561052E
:102FB000710511F482E037C082E89FEF13969C936D
:102FC0008E9312979A01AB0167E0220F331F441FC3
:102FD000551F6A95D1F783E08C930DC0220F331FE4
:102FE000441F551F12968D919C911397019713962C
:102FF0009C938E931297203080E0380780E048073A
:1030000080E4580758F314962D933D934D935C93A9
:10301000179708952F3F310579F441155105610542
:10302000710519F484E08C93089564FF03C081E076
:103030008C9312C01C9210C02F57304013963C93B3
:103040002E93129783E08C9387E0440F551F661FE1
:10305000771F8A95D1F7706414964D935D936D93A5
:103060007C93179708951F93DC01FB019C9192308C
:1030700008F447C08081823008F443C0943051F492
:1030800011961C91843099F58181682F70E0611B45
:1030900071093FC0843021F0923031F48230B9F1AF
:1030A0008181882389F12DC011961C91119782305E
:1030B000F1F081811817D9F412962D913C91139754
:1030C000828193818217930794F028173907BCF007
:1030D00014968D919D910D90BC91A02D24813581E8
:1030E00046815781281739074A075B0718F41123CF
:1030F00041F00AC082179307A407B50740F41123D3
:1031000019F061E070E005C06FEF7FEF02C060E092
:1031100070E0CB011F910895629FD001739FF00171
:10312000829FE00DF11D649FE00DF11D929FF00D57
:10313000839FF00D749FF00D659FF00D9927729F8E
:10314000B00DE11DF91F639FB00DE11DF91FBD0119
:10315000CF011124089597FB092E07260AD077FD89
:1031600004D02ED006D000201AF4709561957F4FC0
:103170000895F6F7909581959F4F0895A1E21A2E34
:10318000AA1BBB1BFD010DC0AA1FBB1FEE1FFF1F0B
:10319000A217B307E407F50720F0A21BB30BE40B5B
:1031A000F50B661F771F881F991F1A9469F76095A2
:1031B0007095809590959B01AC01BD01CF0108955C
:1031C000AA1BBB1B51E107C0AA1FBB1FA617B7074D
:1031D00010F0A61BB70B881F991F5A95A9F7809569
:1031E0009095BC01CD0108952F923F924F925F922E
:1031F0006F927F928F929F92AF92BF92CF92DF9207
:10320000EF92FF920F931F93CF93DF93CDB7DEB76B
:10321000CA1BDB0B0FB6F894DEBF0FBECDBF0994FF
:103220002A88398848885F846E847D848C849B8456
:10323000AA84B984C884DF80EE80FD800C811B8164
:10324000AA81B981CE0FD11D0FB6F894DEBF0FBE93
:0A325000CDBFED010895F894FFCF03
:10325A000000000000000000000102020303030353
:10326A00040404040404040405050505050505050C
:10327A0005050505050505050606060606060606EC
:10328A0006060606060606060606060606060606D4
:10329A0006060606060606060707070707070707BC
:1032AA0007070707070707070707070707070707A4
:1032BA000707070707070707070707070707070794
:1032CA000707070707070707070707070707070784
:1032DA00070707070707070708080808080808086C
:1032EA000808080808080808080808080808080854
:1032FA000808080808080808080808080808080844
:10330A000808080808080808080808080808080833
:10331A000808080808080808080808080808080823
:10332A000808080808080808080808080808080813
:10333A000808080808080808080808080808080803
:10334A0008080808080808080808080808080808F3
:08335A0008080808080808082B
:00000001FF
