:100000000C9432000C944F000C944F000C944F0051
:100010000C944F000C944F000C944F000C944F0024
:100020000C944F000C944F000C944F000C944F0014
:100030000C944F000C9425010C944F000C94DF009D
:100040000C944F000C944F000C944F000C944F00F4
:100050000C944F000D0A006364696E6F70737578BD
:10006000585B000011241FBECFE5D8E0DEBFCDBF36
:1000700010E0A0E6B0E0E4ECF0E102C005900D92E3
:10008000AA3BB107D9F710E0AAEBB0E001C01D927E
:10009000A53CB107E1F70E9451000C9460080C9454
:1000A0000000DF93CF93CDB7DEB7A9970FB6F894D2
:1000B000DEBF0FBECDBF1E821D821C821B821A8234
:1000C00019820E945B0200D0EDB7FEB7319682E63E
:1000D00090E0918380830E947B020F900F900E949A
:1000E00057018F8389819A8199A788A788A599A5A7
:1000F00081309105A1F088A599A58230910509F478
:1001000045C088A599A50097F1F6909160008F8170
:100110008917C9F681E090E09A838983D4CF8F81D3
:100120008D839D818E81981761F18D810E9443019D
:100130008EE790E06CE170E00E9400028D81882FD4
:1001400090E000D000D000D0EDB7FEB7319691839B
:1001500080838AE990E093838283CE01869695839B
:1001600084830E9490028DB79EB706960FB6F894CE
:100170009EBF0FBE8DBF8EA19FA10E9448028D81A0
:100180008E8382E090E09A8389839DCF9B818C81CE
:10019000981791F08F818B838B810E9443018FE9A7
:1001A00090E069E170E00E9400028B81882F90E06E
:1001B0000E9448028B818C831A82198284CF1F92FD
:1001C0000F920FB60F9211248F939F93AF93BF930B
:1001D000EF93FF93DF93CF93CDB7DEB78091BC0051
:1001E0009091BD00009709F18091BC009091BD00F5
:1001F00001969093BD008093BC00E091BC00F0910B
:10020000BD008081882341F41092BD001092BC0093
:1002100081E08093BB000CC0ECE2F0E0A091BC0058
:10022000B091BD008C91808303C081E08093BB00BE
:10023000CF91DF91FF91EF91BF91AF919F918F91FE
:100240000F900FBE0F901F9018951F920F920FB630
:100250000F9211248F93EF93FF93DF93CF93CDB73A
:10026000DEB781E08093BA00ECE2F0E08081809319
:10027000BE00CF91DF91FF91EF918F910F900FBE54
:100280000F901F901895DF93CF930F92CDB7DEB7E5
:1002900089838091BB008823E1F31092BB00ECE2DC
:1002A000F0E0898180830F90CF91DF910895DF93F3
:1002B000CF93CDB7DEB78091BA008823E1F31092D7
:1002C000BA008091BE00CF91DF910895DF93CF9364
:1002D00000D0CDB7DEB79A8389838091BB00882395
:1002E000E1F31092BB0089819A819093BD008093C5
:1002F000BC00ACE2B0E0E091BC00F091BD008081B8
:100300008C930F900F90CF91DF910895DF93CF934F
:1003100000D00F92CDB7DEB78091BB008823E1F308
:100320001092BB0084E590E09093BD008093BC00E8
:10033000ACE2B0E08091BC009091BD009B838A83C9
:10034000EA81FB818491898389818C930F900F903E
:100350000F90CF91DF910895DF93CF9300D0CDB769
:10036000DEB78A838A818F70898389818A3020F001
:100370008981895C898303C08981805D89838981C2
:100380000E9443010F900F90CF91DF910895DF936A
:10039000CF930F92CDB7DEB78983898182958F7015
:1003A0000E94AC0189810E94AC010F90CF91DF9136
:1003B0000895DF93CF9300D0CDB7DEB79A838983BA
:1003C00089819A81892F992782958F700E94AC012B
:1003D00089819A81892F99270E94AC0189819A810C
:1003E000929582958F7089279F7089270E94AC0112
:1003F00089810E94AC010F900F90CF91DF910895F9
:10040000DF93CF9300D000D000D0CDB7DEB79C8370
:100410008B837E836D838EEF0E9443011A82198243
:100420000FC029813A818B819C81FC01E20FF31F6F
:1004300080810E94430189819A8101969A838983F0
:1004400029813A818D819E812817390754F38FEFD6
:100450000E94430126960FB6F894DEBF0FBECDBFB3
:10046000CF91DF910895DF93CF9300D0CDB7DEB762
:100470009A8389838EEF0E94430189810E94430100
:100480008FEF0E9443010F900F90CF91DF9108955D
:10049000DF93CF930F92CDB7DEB789838EEF0E94A3
:1004A000430189810E9443018FEF0E9443010F9015
:1004B000CF91DF910895DF93CF93CDB7DEB781E081
:1004C0008093BB001092BA001092BD001092BC0045
:1004D000E0E4F0E086E88083EAE2F0E088ED808303
:1004E000E0E4F0E01082E9E2F0E087E680837894CF
:1004F000CF91DF910895A0E0B0E0E1E8F2E00C9444
:100500003908FE013596619171918091C1009091F9
:10051000C200AF010E94A5022096E2E00C945508AB
:10052000A0E0B0E0E6E9F2E00C943908FE0135966F
:10053000619171918091BF009091C000AF010E94C4
:1005400006062096E2E00C945508ABE0B0E0EBEA3A
:10055000F2E00C9429083C012B015A01FC0117829E
:100560001682838181FD03C06FEF7FEFC6C19AE0E1
:10057000892E1E010894211C311CF3012381F201F4
:1005800023FD859123FF81912F01882309F4B2C1B6
:10059000853239F423FD859123FF81912F01853226
:1005A00029F490E0B3010E948207E7CF982FFF243F
:1005B000EE249924FFE1FF15D0F09B3269F09C32C4
:1005C00028F4903259F0933291F40EC09D3249F0E4
:1005D000903369F441E024C052E0F52A84E0F82A1F
:1005E00028C098E0F92A25C0E0E1FE2A22C0F7FCE5
:1005F00029C0892F80538A3070F4F6FE05C0989C7C
:10060000902C1124980E15C0E89CE02C1124E80EC3
:10061000F0E2FF2A0EC09E3229F4F6FC6BC140E4E2
:10062000F42A07C09C3619F450E8F52A02C098361F
:1006300049F4F20123FD959123FF91912F01992314
:1006400009F0B8CF892F8554833018F08052833059
:1006500038F444E050E0A40EB51E5FE359830FC0A8
:10066000933631F0933779F0933509F056C020C0B6
:10067000F5018081898342E050E0A40EB51E61013E
:1006800001E010E012C0F501C080D180F6FC03C08B
:100690006FEF7FEF02C0692D70E042E050E0A40EE2
:1006A000B51EC6010E9435078C015FE7F52214C014
:1006B000F501C080D180F6FC03C06FEF7FEF02C070
:1006C000692D70E042E050E0A40EB51EC6010E9404
:1006D0002A078C0150E8F52AF3FE07C01AC080E211
:1006E00090E0B3010E948207EA948E2D90E00817F3
:1006F0001907A8F30EC0F601F7FC8591F7FE81916A
:100700006F0190E0B3010E948207E110EA9401506A
:1007100010400115110579F7EAC0943611F09936A9
:1007200069F5F7FE08C0F5012081318142815381CE
:1007300084E090E00AC0F501808191819C0144270A
:1007400037FD4095542F82E090E0A80EB91E9FE639
:10075000F92257FF09C050954095309521953F4F9C
:100760004F4F5F4FE0E8FE2ACA01B901A1012AE01C
:1007700030E00E94C807D82ED21840C0953729F41F
:100780001F2D1F7E2AE030E01DC01F2D197F9F36D0
:1007900061F0903720F4983509F0ACC00FC0903765
:1007A00039F0983709F0A6C004C028E030E00AC04C
:1007B000106114FD146020E130E004C014FD1660E7
:1007C00020E132E017FF08C0F5016081718182816C
:1007D000938144E050E008C0F50180819181BC0123
:1007E00080E090E042E050E0A40EB51EA1010E941E
:1007F000C807D82ED2188FE7F82EF122F6FE0BC0CC
:100800005EEFF522D91438F4F4FE07C0F2FC05C0FF
:100810008FEEF82202C01D2D01C0192DF4FE0DC06F
:10082000FE01ED0DF11D8081803319F499EEF9225E
:1008300008C01F5FF2FE05C003C08F2D867809F047
:100840001F5F0F2DF3FC14C0F0FE0FC01E1510F03B
:100850009D2C0BC09D2C9E0C911A1E2D06C080E273
:1008600090E0B3010E9482071F5F1E15C0F304C011
:100870001E1510F4E11A01C0EE2404FF0FC080E33E
:1008800090E0B3010E94820702FF1DC001FD03C07A
:1008900088E790E00EC088E590E00BC0802F867856
:1008A00091F001FF02C08BE201C080E2F7FC8DE213
:1008B00090E0B3010E94820706C080E390E0B3019C
:1008C0000E9482079A94D914C0F3DA94F101ED0DD5
:1008D000F11D808190E0B3010E948207DD20A9F71D
:1008E00006C080E290E0B3010E948207EA94EE2005
:1008F000C1F743CEF30166817781CB012B96E2E10C
:100900000C944508FC0120FD08C023FD05C022FF12
:1009100002C073836283518340830895EF92FF92F4
:100920000F931F9344FF02C033E011C046FF02C083
:1009300034E00DC0DB01FC01AA0FBB1FEE1FFF1F3F
:100940001094D1F76A0F7B1F8E1F9F1F31E0660F37
:10095000771F881F991F3150D1F77B018C01E20E60
:10096000F11C011D111DA8019701B701CA011F91BA
:100970000F91FF90EF9008950F931F93CF93DF9304
:100980008C01C8010E944007EC0197FD08C00E943D
:100990001707892BB1F7CE01B8010E94AE07CE012F
:1009A000DF91CF911F910F910895A0E0B0E0EBEDA2
:1009B000F4E00C943108EC01C62E5A01122F0E946B
:1009C0004007AC018B3219F08D3251F41068CA9493
:1009D00009F46DC0CE010E944007AC0197FD67C0CD
:1009E0006DEFD62ED1228D2D807301F54033F1F4B9
:1009F000CA9409F447C0CE010E944007AC0197FD9C
:100A000041C082E0D82A483711F0483559F480E4D3
:100A1000D82ACA94B9F1CE010E944007AC019923AB
:100A20002CF430C0D6FC02C080E1D82AEE24FF248A
:100A30008701242F2053283088F0D4FC09C02A30A5
:100A400068F0D6FE05C02F7D822F8151863028F0B8
:100A5000CA01BE010E94AE0712C02750C801B701EB
:100A60004D2D0E948E047B018C0182E0D82ACA940D
:100A700061F0CE010E944007AC0197FFDACFD1FCB4
:100A800004C015C0EE24FF248701D7FE08C01095CE
:100A90000095F094E094E11CF11C011D111DC501AD
:100AA000B801A7012D2D0E94820481E001C080E0E1
:100AB000CDB7DEB7EAE00C944D08A0E2B0E0E3E683
:100AC000F5E00C942D086C01A62E8A017901FE0137
:100AD000319680E2DF011D928A95E9F770E030E0FF
:100AE00060E040E050E04F01A1E0B0E0F60183811A
:100AF000F70183FD259183FF21917F01222309F4D2
:100B00007EC02E3519F44115510569F1872F90E00B
:100B10008417950744F42D3551F12D3221F43323F8
:100B200029F431E021C0332309F4622F322F832FBF
:100B3000869586958695F401E80FF11D832F8770C1
:100B40003D0102C0660C771C8A95E2F720812629B8
:100B50002083361711F430E007C0361710F43F5FDA
:100B6000E6CF3150E4CF71E04F5F5F4FBFCF33230B
:100B700019F08E8180628E83772359F0FE013196C1
:100B80009E012F5D3F4F808180958193E217F3078F
:100B9000D1F7BB24B3944E010894811C911CC6016B
:100BA0000E944007AC0197FD22C0869586958695E8
:100BB000F401E80FF11D808190E09A0127703070F8
:100BC00002C0959587952A95E2F780FD05C0CA0178
:100BD000B6010E94AE070BC00115110519F0D8012E
:100BE0004D938D01AA94BB24AA20C9F602C0BB2054
:100BF00031F40115110529F0F801108202C0EE242C
:100C0000FF24C701A096EEE00C944908A0E0B0E0F4
:100C1000ECE0F6E00C942D085C016B013A01FC015C
:100C2000178216828824EAC0812F90E00E9417075D
:100C3000892B21F0C5010E94BC04E0C0153249F4A3
:100C4000F601F3FC6591F3FE61916F01653269F481
:100C500015E2C5010E94400797FDDCC0181709F492
:100C6000CDC0B5010E94AE07DAC06A3219F0162F66
:100C700000E006C0F3FC1591F3FE11916F0101E055
:100C800099240FC00260692D70E080E090E040E29E
:100C90000E948E04962EF601F3FC1591F3FE11913D
:100CA0006F01212F20532A3068F301FD03C09924DE
:100CB0009A9403C0992009F4B2C0183621F01C366A
:100CC00099F4F6010BC0F601F3FC6591F3FE619116
:100CD000683619F06F01162F07C008600460F3FC36
:100CE0001591F3FE11916F01112309F498C087E566
:100CF00090E0612F70E00E941F07892B09F48FC0DC
:100D0000802F00FF03C0EE24FF2407C0F301E08022
:100D1000F18022E030E0620E731E1E3651F4F501C0
:100D20004681578160E070E0C701202F0E94820455
:100D300065C0133691F481FD02C099249394C501D6
:100D40000E94400797FD66C0E114F10419F0F70115
:100D500081937F019A9499F74FC01B3559F4C501CF
:100D6000692DA70196010E945D056C01009709F0AD
:100D700043C03DC0C5010E94BC0497FD4BC01F3657
:100D800059F1103728F4143629F1193639F527C0EE
:100D9000133719F0153711F51DC0C5010E94400722
:100DA000EC0197FD11C00E941707892B29F0CE0195
:100DB000B5010E94AE0708C0E114F10419F0F70173
:100DC000C1937F019A9449F7E114F104A9F0F70166
:100DD000108212C0006203C0006101C00064C5013E
:100DE000692DA701202F0E94D504882329F4F5013D
:100DF0008381807379F413C000FF8394F501F3803D
:100E0000F601F3FC1591F3FE11916F01112309F026
:100E10000BCF05C0882019F42FEF3FEF02C0282D1B
:100E200030E0C901CDB7DEB7EEE00C94490891116E
:100E30000DC1803219F089508550D0F70895FC011A
:100E40000590061621F00020D9F7C00108953197CA
:100E5000CF010895FC010590615070400110D8F752
:100E6000809590958E0F9F1F0895FC0161507040F2
:100E700001900110D8F7809590958E0F9F1F0895CF
:100E8000CF93DF93EC014B8140FF1AC046FF0AC0AD
:100E90004F7B4B838E819F8101969F838E838A81B6
:100EA000282F2BC042FF13C0E881F9818081282FB1
:100EB000332727FD30952115310529F440624B83F6
:100EC0002FEF3FEF1BC03196F983E88311C0EA850D
:100ED000FB85CE0109959C0197FF0AC09B812F5F7E
:100EE0003F4F11F080E201C080E1892B8B83E8CF76
:100EF0008E819F8101969F838E8330E0C901DF91AF
:100F0000CF9108950F931F93CF93DF938C01EB0143
:100F10008B8181FF1BC082FF0DC02E813F818C81A0
:100F20009D812817390764F4E881F9810193F983D9
:100F3000E88306C0E885F985802F0995892B31F46F
:100F40008E819F8101969F838E8302C00FEF1FEFDA
:100F5000C801DF91CF911F910F9108959C01FB0172
:100F6000838180FF11C086FD0FC09FEF2F3F39079F
:100F700059F0228380648F7D8383868197810197D6
:100F80009783868330E002C02FEF3FEFC9010895B9
:100F9000FA01AA27283051F1203181F1E8946F93AA
:100FA0006E7F6E5F7F4F8F4F9F4FAF4FB1E03ED050
:100FB000B4E03CD0670F781F891F9A1FA11D680FEE
:100FC000791F8A1F911DA11D6A0F711D811D911D21
:100FD000A11D20D009F468943F912AE0269F112496
:100FE0003019305D3193DEF6CF010895462F4770FA
:100FF000405D4193B3E00FD0C9F7F6CF462F4F7055
:10100000405D4A3318F0495D31FD4052419302D0B2
:10101000A9F7EACFB4E0A695979587957795679558
:10102000BA95C9F700976105710508959B01AC0158
:101030000A2E06945795479537952795BA95C9F77F
:10104000620F731F841F951FA01D0895992788277D
:1010500008952F923F924F925F926F927F928F925C
:101060009F92AF92BF92CF92DF92EF92FF920F9337
:101070001F93CF93DF93CDB7DEB7CA1BDB0B0FB641
:10108000F894DEBF0FBECDBF09942A8839884888FE
:101090005F846E847D848C849B84AA84B984C88494
:1010A000DF80EE80FD800C811B81AA81B981CE0F8B
:1010B000D11D0FB6F894DEBF0FBECDBFED01089570
:0410C000F894FFCFD2
:1010C400F1F068686868686868686868686868688B
:1010D4006868686868686868686868686800206440
:1010E400656275673A2065746174203D20313B2048
:1010F400766974657373653D2000257669740020F4
:1011040064656275673A2065746174203D20323BE2
:0A11140020616E676C653D2000004D
:00000001FF
