:100000000C942A000C9434000C9434000C943400AA
:100010000C9434000C9434000C9434000C94340090
:100020000C9434000C9434000C9434000C94340080
:100030000C9434000C9434000C9434000C94340070
:100040000C9434000C9434000C9434000C94340060
:100050000C94340011241FBECFE5D8E0DEBFCDBF25
:100060000E9436000C9463000C940000DF93CF9341
:1000700000D000D0CDB7DEB7E7E3F0E08FEF8083AC
:1000800081E08C83E8E3F0E08C81809580838C8133
:10009000880F8C838C81882311F481E08C831B82F0
:1000A0000EC01A8206C089818F5F89838A818F5F23
:1000B0008A838A818F3FB9F78B818F5F8B838B8196
:0A00C0008F3F79F7DFCFF894FFCFF0
:00000001FF
