:100000000C942C000C9449000C9449000C94490069
:100010000C9449000C9449000C9449000C9449003C
:100020000C9449000C9449000C9449000C9449002C
:100030000C9449000C94D8000C9449000C94920044
:100040000C9449000C9449000C9449000C9449000C
:100050000C9449000D0A000011241FBECFE5D8E022
:10006000DEBFCDBF10E0A0E6B0E0EAEAF3E002C0F8
:1000700005900D92AE36B107D9F710E0AEE6B0E0CC
:1000800001C01D92A337B107E1F70E945D000C94F7
:10009000D3010C940000DF93CF9300D000D000D0A8
:1000A000CDB7DEB79E838D8326960FB6F894DEBF5C
:1000B0000FBECDBFCF91DF910895DF93CF9300D0D6
:1000C0000F92CDB7DEB70E94B30183E68B838EEF2C
:1000D0000E94F6008B810E94F6008FEF0E94F600CE
:1000E00088E78A838AE5898381EF0E94F60086E5A6
:1000F0000E94F60086E50E94F60080E690E00E94ED
:1001000019010E9439018EEF0E94F6000E940A0137
:100110008B838B81882F90E00E948C018FEF0E944F
:10012000F600F1CF1F920F920FB60F9211248F930A
:100130009F93AF93BF93EF93FF93DF93CF93CDB78D
:10014000DEB78091700090917100009709F1809165
:1001500070009091710001969093710080937000EF
:10016000E0917000F09171008081882341F4109239
:1001700071001092700081E080936F000CC0ECE27F
:10018000F0E0A0917000B09171008C91808303C069
:1001900081E080936F00CF91DF91FF91EF91BF914C
:1001A000AF919F918F910F900FBE0F901F90189558
:1001B0001F920F920FB60F9211248F93EF93FF931C
:1001C000DF93CF93CDB7DEB781E080936E00ECE292
:1001D000F0E0808180937200CF91DF91FF91EF91E9
:1001E0008F910F900FBE0F901F901895DF93CF93B4
:1001F0000F92CDB7DEB7898380916F008823E1F33A
:1002000010926F00ECE2F0E0898180830F90CF9133
:10021000DF910895DF93CF93CDB7DEB780916E0065
:100220008823E1F310926E0080917200CF91DF91EC
:100230000895DF93CF9300D0CDB7DEB79A8389833B
:1002400080916F008823E1F310926F0089819A8179
:100250009093710080937000ACE2B0E0E091700088
:10026000F091710080818C930F900F90CF91DF916E
:100270000895DF93CF9300D00F92CDB7DEB7809172
:100280006F008823E1F310926F0084E590E0909373
:10029000710080937000ACE2B0E0809170009091AA
:1002A00071009B838A83EA81FB81849189838981A0
:1002B0008C930F900F900F90CF91DF910895DF9363
:1002C000CF9300D0CDB7DEB78A838A818F708983C0
:1002D00089818A3020F08981895C898303C0898182
:1002E000805D898389810E94F6000F900F90CF91E5
:1002F000DF910895DF93CF930F92CDB7DEB7898357
:10030000898182958F700E945F0189810E945F01BF
:100310000F90CF91DF910895DF93CF9300D0CDB7A9
:10032000DEB79A83898389819A81892F992782955B
:100330008F700E945F0189819A81892F99270E947D
:100340005F0189819A81929582958F7089279F702C
:1003500089270E945F0189810E945F010F900F90A1
:10036000CF91DF910895DF93CF93CDB7DEB781E0D2
:1003700080936F0010926E001092710010927000C6
:10038000E0E4F0E086E88083EAE2F0E088ED808354
:10039000E0E4F0E01082E9E2F0E087E68083789420
:0A03A000CF91DF910895F894FFCF8C
:0E03AA0048656C6C6F20576F726C64202100E8
:00000001FF
